{
  "contractName": "Sensor",
  "abi": [
    {
      "constant": false,
      "inputs": [
        {
          "name": "_data",
          "type": "int256"
        }
      ],
      "name": "putData",
      "outputs": [],
      "payable": false,
      "stateMutability": "nonpayable",
      "type": "function"
    },
    {
      "constant": true,
      "inputs": [
        {
          "name": "",
          "type": "address"
        }
      ],
      "name": "sensorData",
      "outputs": [
        {
          "name": "",
          "type": "int256"
        }
      ],
      "payable": false,
      "stateMutability": "view",
      "type": "function"
    }
  ],
  "bytecode": "0x6060604052341561000f57600080fd5b61014b8061001e6000396000f30060606040526004361061004c576000357c0100000000000000000000000000000000000000000000000000000000900463ffffffff16806319aeea2e146100515780633e14cb6514610074575b600080fd5b341561005c57600080fd5b61007260048080359060200190919050506100c1565b005b341561007f57600080fd5b6100ab600480803573ffffffffffffffffffffffffffffffffffffffff16906020019091905050610107565b6040518082815260200191505060405180910390f35b806000803373ffffffffffffffffffffffffffffffffffffffff1673ffffffffffffffffffffffffffffffffffffffff1681526020019081526020016000208190555050565b600060205280600052604060002060009150905054815600a165627a7a723058205c0fbebc40a8c721b17d006eca5a9e225f0a18811e3417fd3a1f6bd1951dea150029",
  "source": "pragma solidity ^0.4.18;\r\n\r\ncontract Sensor {\r\n\r\n    mapping(address => int) public sensorData;\r\n\r\n    function putData(int _data) public {\r\n        sensorData[msg.sender] = _data;\r\n    }\r\n}",
  "sourcePath": "C:\\Users\\QK148GL\\Documents\\GitHub\\IOT-Web3-REST-API\\contracts\\Sensor.sol",
  "compiler": {
    "name": "solc",
    "version": "0.4.18+commit.9cf6e910.Emscripten.clang"
  },
  "schemaVersion": "1.0.1",
  "updatedAt": "2017-11-24T19:45:00.738Z"
}